:0D0BE0002020002D003A00416C61726D0074
:100AA400180F001F001D001F001E001F001E001F46
:100AB400001F001E001F001E001F0327000000016E
:020AC4000A0125
:1007E6001205E9E53BFB3395E0FA752F027D017FA3
:1007F60001120B5EE53CFB3395E0FA752F027D0492
:100806007F01120B5EE53DFB3395E0FA752F027D05
:10081600077F01120B5EE53EFB3395E0FA752F026A
:100826007D017F02120B5EE53FFB3395E0FA752FE3
:10083600027D047F02120B5EE540FB3395E0FA75FC
:090846002F027D077F02020B5E08
:10043D00E50C7014E50EB4010F7BFF7A0B79E07DAE
:10044D00097F02120AFB8011E527FB3395E0FA754F
:10045D002F027D097F02120B5EE50CB40114E50E2F
:10046D00B4010F7BFF7A0B79E07D0C7F02120AFB42
:10047D008011E528FB3395E0FA752F027D0C7F0284
:10048D00120B5EE50CB40214E50EB4010F7BFF7A7E
:10049D000B79E07D0F7F02120AFB8011E529FB33FA
:1004AD0095E0FA752F027D0F7F02120B5EE50BB4FE
:1004BD00020D050CE50C75F0031206A485F00CE594
:1004CD000BB4032A7427250CF806D3E52764809412
:1004DD00974003E4F527D3E528648094BB4003E4FB
:1004ED00F528D3E529648094BB4003E4F529E50B99
:1004FD00B4042A7427250CF816C3E527648094806C
:10050D005003752717C3E528648094805003752820
:0E051D003BC3E52964809480500375293B227E
:10000E00E50C7014E50EB4010F7BFF7A0B79E07DE1
:10001E00017F01120AFB8011E53BFB3395E0FA7577
:10002E002F027D017F01120B5EE50CB40114E50E6B
:10003E00B4010F7BFF7A0B79E07D047F01120AFB7E
:10004E008011E53CFB3395E0FA752F027D047F01AC
:10005E00120B5EE50CB40214E50EB4010F7BFF7AB1
:10006E000B79E07D077F01120AFB8011E53DFB3322
:10007E0095E0FA752F027D077F01120B5EE50CB439
:10008E000314E50EB4010F7BFF7A0B79E07D017F3F
:10009E0002120AFB8011E53EFB3395E0FA752F0242
:1000AE007D017F02120B5EE50CB40414E50EB40163
:1000BE000F7BFF7A0B79E07D047F02120AFB801121
:1000CE00E53FFB3395E0FA752F027D047F02120B9C
:1000DE005EE50CB40514E50EB4010F7BFF7A0B79C7
:1000EE00E07D077F02120AFB8011E540FB3395E0AD
:1000FE00FA752F027D077F02120B5EE50BB4020D1F
:10010E00050CE50C75F0061206A485F00CE50B64E3
:10011E000360030201D9743B250CF806D3E53B645A
:10012E008094E34003E4F53BD3E53C6480948C403B
:10013E0003753C01E53B75F0641206A4AFF0EF6069
:10014E000DE53B75F0041206A4AFF0EF702CE53C04
:10015E00B4020BD3E53D6480949D404B8046E53C54
:10016E0025E0240DF8E6FE08E6FFAD3DED3395E003
:10017E00FCD3ED9FEC9E402F802AE53CB4020BD3BE
:10018E00E53D6480949C401F801AE53C25E0240DDB
:10019E00F8E6FE08E6FFAD3DED3395E0FCD3ED9FAE
:1001AE00EC9E4003753D01D3E53E64809497400379
:1001BE00E4F53ED3E53F648094BB4003E4F53FD3C2
:1001CE00E540648094BB4003E4F540E50B640460B5
:1001DE00030202E2743B250CF816C3E53B648094DF
:1001EE00805003753B63C3E53C6480948150037576
:1001FE003C0CE53B75F0641206A4AFF0EF600DE524
:10020E003B75F0041206A4AFF0EF7055E53CB40256
:10021E001EC3E53D648094815003753D1DD3E53DBD
:10022E006480949D50030202BE753D1D0202BEC342
:10023E00E53D64809481500BE53C25E0240DF808E3
:10024E00E6F53DE53C25E0240DF8E6FE08E6FFADBB
:10025E003DED3395E0FCD3ED9FEC9E40538F3D80FA
:10026E004FE53CB4021AC3E53D648094815003759A
:10027E003D1CD3E53D6480949C4035753D1C80301B
:10028E00C3E53D64809481500BE53C25E0240DF8D8
:10029E0008E6F53DE53C25E0240DF8E6FE08E6FF10
:1002AE00AD3DED3395E0FCD3ED9FEC9E40028F3DCE
:1002BE00C3E53E648094805003753E17C3E53F64EA
:1002CE008094805003753F3BC3E54064809480501A
:0502DE000375403B2206
:100A3E00E527FB3395E0FA752F027D097F02120B35
:100A4E005EE528FB3395E0FA752F027D0C7F0212CE
:100A5E000B5EE529FB3395E0FA752F027D0F7F02C1
:030A6E00020B5E1A
:100AD000E50AB40125E53EB52720E53FB5281BE52D
:040AE00040B52916DE
:100AE400E4F52A7FE87E03120B1E1207E6052AE5C9
:060AF4002AC3940540ED49
:010AFA0022D9
:10052B00120BBD120C011202E37BFF7A0B79E37DF8
:10053B00037F01120AFB7BFF7A0B79E37D067F01B8
:10054B00120AFB7BFF7A0B79E57D037F02120AFB14
:10055B007BFF7A0B79E57D067F02120AFB7BFF7A24
:10056B000B79E57D0B7F02120AFB7BFF7A0B79E59A
:10057B007D0E7F02120AFB7BFF7A0B79E77D0B7FE7
:10058B0001120AFB120B7B120AD012084F8F0BE5DC
:10059B000B64017028E50D7007750D01F50A801DC0
:1005AB00E50DB4010B750D021202E3E4F50C800DA1
:1005BB00E50DB40208E4F50DF50C750A01E50D1413
:1005CB00600F146011240270BE1207E6120A3E80FF
:0E05DB00B612000E80B11207E612043D80A990
:03000B0002099453
:09099400C0E0C0D075D000C0071E
:10099D00758A18758CFC0509E50970020508C39464
:1009AD00F4E50894014012750800750900E50E7014
:0909BD00047F0180027F008F0E0F
:0709C600D007D0D0D0E032D1
:100BA800EF1FAC0670011E4C600A7D027CEFDCFE74
:040BB800DDFC80ECF4
:010BBC002216
:060BD100C2A58F80D2A72F
:080BD7007F027EEFDEFEDFFC71
:010BDF0022F3
:0A0BED00C2A6120BD1C2A7020BD75B
:100B4000CFCDCFCECCCE1207057C007D0A12070593
:040B5000ED2430FF61
:0A0B5400D2A6120BD1C2A7020BD7E4
:100B9200AE07BE0104ED148006BE0209ED243F44F7
:060BA20080FF120BED22A2
:100BBD007F38120BED7F0C120BED7F06120BED7FC4
:040BCD0001020BED29
:0A0BF700AC03120B92AF04020B5482
:060AFB008B2A8A2B892CD6
:100B0100120B92E4FDAB2AAA2BA92C8D82758300CE
:0C0B11001206C6FF6006120B540D80E9AE
:010B1D0022B5
:0C0A71007F0AEA24FFFDE434FFFC7E0055
:080A7D008E308F318C328D3375
:100A85007F017E00E4FBEBC39533E5326480F874A7
:0E0A95008098500AAC30AD311206F30B80E8A9
:010AA3002230
:040B5E008A2D8B2E23
:100B6200120B92AA2FEAD39400400D120A71AC2DF7
:080B7200AD2E120B401A80EDBC
:010B7A002258
:10095A00120B92C3EA64809480400B7F2B120B54D3
:10096A008A398B3A800E7F2D120B54C3E49BF53AD9
:10097A00E49AF539AA38EAD39400400D120A71AC08
:09098A0039AD3A120B401A80ED60
:010993002241
:0409CD008A448B4588
:1009D100120B92AA46EAD3940040297F10120A739F
:1009E100AC44AD45CFCDCFCECCCE120705EF540FE1
:1009F100FEC3940AEE5004243080022437FF120B08
:040A0100541A80D132
:010A050022CE
:040A06008A498B4A44
:100A0A00120B92AA4BEAD394004028EA24FFFDE491
:100A1A0034FFFC7F027E00120A7DAC49AD4ACFCD7D
:100A2A00CFCECCCE120705EF54012430FF120B545F
:030A3A001A80D24D
:010A3D002296
:090AC600073B170C1F173B370515
:050C0100C2B5C2B622DD
:0508B0002DFDEE3CFCF3
:0608B5008C2A8D2BAB071D
:1008BB00D2B5E4FD74017E00A805088005C333CED4
:1008CB0033CED8F9FFEBF582EF558224FF92B4D2E9
:1008DB00B6C2B60DBD08DDE4FD74017E00A80508A7
:1008EB008005C333CE33CED8F9FFE52A5EFEE52B68
:1008FB005F4E24FF92B4D2B6C2B60DBD08DBC2B5B3
:01090B0022C9
:02090C00AD0735
:10090E00E4F9430501D2B5FB74017E00A80308800B
:10091E0005C333CE33CED8F9FFEDF582EF558224E1
:10092E00FF92B4C2B6D2B60BBB08DDE4FBD2B6C2A0
:10093E00B630B40D7401A803088002C333D8FC424C
:0B094E00010BBB08E8C2B5C2B4AF014A
:01095900227B
:1002E300E4FDFC7F8E1208B5E53B75F00A1206A407
:1002F300FF3395E0FEEFC4F8540FC868FFEEC45413
:10030300F048FEE53B75F00A1206A4ADF0ED339517
:10031300E0FCEF7F8C1208B0E53C75F00A1206A4EE
:10032300FF3395E0FEEFC4F8540FC868FFEEC454E2
:10033300F048FEE53C75F00A1206A4ADF0ED3395E6
:10034300E0FCEF7F881208B0E53D75F00A1206A4C1
:10035300FF3395E0FEEFC4F8540FC868FFEEC454B2
:10036300F048FEE53D75F00A1206A4ADF0ED3395B5
:10037300E0FCEF2DFDEE3CFC7F861208B5E53E75F3
:10038300F00A1206A4FF3395E0FEEFC4F8540FC839
:1003930068FFEEC454F048FEE53E75F00A1206A469
:1003A300ADF0ED3395E0FCEF2DFDEE3CFC7F8412C8
:1003B30008B5E53F75F00A1206A4FF3395E0FEEF9A
:1003C300C4F8540FC868FFEEC454F048FEE53F7507
:1003D300F00A1206A4ADF0ED3395E0FCEF2DFDEE2F
:1003E3003CFC7F821208B5E54075F00A1206A4FFB3
:1003F3003395E0FEEFC4F8540FC868FFEEC454F021
:1004030048FEE54075F00A1206A4ADF0ED3395E021
:10041300FCEF2DFDEE3CFC7F801208B5E54175F045
:100423000A1206A4AFF0EFFD3395E0FC7F8A1208B1
:0A043300B57D807C007F8E0208B5C5
:1005E9007F8C12090CAD077C00ECC4F854F0C8EDFF
:1005F900C4540F4875F00AA4FFED540F2FF53B7F43
:100609008812090CAD07ECC4F854F0C8EDC4540FB6
:100619004875F00AA4FFED540F2FF53C7F861209A7
:100629000CAD07ECC4F854F0C8EDC4540F4875F08C
:100639000AA4FFED540F2FF53D7F8412090CAD0775
:10064900ECC4F854F0C8EDC4540F4875F00AA4FF7F
:10065900ED540F2FF53E7F8212090CAD07ECC4F85B
:1006690054F0C8EDC4540F4875F00AA4FFED540FB7
:100679002FF53F7F8012090CAD07ECC4F854F0C880
:10068900EDC4540F4875F00AA4FFED540F2FF5403F
:0A0699007F8A12090CEF540FF5419F
:0106A3002234
:10084F00E4F52A20B1137F14FE120BA830B1FD7FFF
:10085F00147E00120BA8752A0120B0147F147E009D
:10086F00120BA830B0FD7F147E00120BA8752A0260
:10087F0020B2147F147E00120BA830B2FD7F147EBD
:10088F0000120BA8752A0320B3147F147E00120BDD
:10089F00A830B3FD7F147E00120BA8752A04AF2A6F
:0108AF002226
:100B7B005389F0438901758A18758CFCC28DD28C10
:070B8B00D2A9D2AFC2B922CA
:05000300007FF7DFFEA5
:0100080022D5
:040B1E00AD07AC066D
:100B2200E4FBFAED25E0FFEC33FEC3EB9FEA9E50B7
:0D0B32000CB2A51200030BBB00010A80E607
:010B3F002293
:0300000002075A9A
:0C075A00787FE4F6D8FD75814B0207A102
:1006A400C2D530F707B2D563F0FF05F030E70CB2DE
:1006B400D5F4048463F0FF05F080018430D502F49E
:0206C40004220E
:1006C600BB010CE58229F582E5833AF583E02250E9
:1006D60006E92582F8E622BBFE06E92582F8E22233
:0D06E600E58229F582E5833AF583E493224D
:1006F300EF8DF0A4A8F0CF8CF0A428CE8DF0A42E1B
:02070300FE22D4
:10070500BC000BBE0029EF8DF084FFADF022E4CCD8
:10071500F875F008EF2FFFEE33FEEC33FCEE9DECA1
:10072500984005FCEE9DFE0FD5F0E9E4CEFD22EDE7
:10073500F8F5F0EE8420D21CFEADF075F008EF2F31
:10074500FFED33FD4007985006D5F0F222C398FD22
:050755000FD5F0EA22BF
:1007660002052BE493A3F8E493A34003F68001F279
:1007760008DFF48029E493A3F85407240CC8C33394
:10078600C4540F4420C8834004F456800146F6DF63
:10079600E4800B0102040810204080900AA4E47E45
:1007A600019360BCA3FF543F30E509541FFEE49358
:1007B600A360010ECF54C025E060A840B8E493A31F
:1007C600FAE493A3F8E493A3C8C582C8CAC583CA4A
:1007D600F0A3C8C582C8CAC583CADFE9DEE780BE02
:010ACF000026
:00000001FF
